{
  "contractName": "AdvancedCollectible",
  "abi": [
    {
      "inputs": [
        {
          "internalType": "address",
          "name": "_VRFCoordinator",
          "type": "address"
        },
        {
          "internalType": "address",
          "name": "_LinkToken",
          "type": "address"
        },
        {
          "internalType": "bytes32",
          "name": "_keyHash",
          "type": "bytes32"
        }
      ],
      "stateMutability": "nonpayable",
      "type": "constructor"
    },
    {
      "anonymous": false,
      "inputs": [
        {
          "indexed": true,
          "internalType": "address",
          "name": "owner",
          "type": "address"
        },
        {
          "indexed": true,
          "internalType": "address",
          "name": "approved",
          "type": "address"
        },
        {
          "indexed": true,
          "internalType": "uint256",
          "name": "tokenId",
          "type": "uint256"
        }
      ],
      "name": "Approval",
      "type": "event"
    },
    {
      "anonymous": false,
      "inputs": [
        {
          "indexed": true,
          "internalType": "address",
          "name": "owner",
          "type": "address"
        },
        {
          "indexed": true,
          "internalType": "address",
          "name": "operator",
          "type": "address"
        },
        {
          "indexed": false,
          "internalType": "bool",
          "name": "approved",
          "type": "bool"
        }
      ],
      "name": "ApprovalForAll",
      "type": "event"
    },
    {
      "anonymous": false,
      "inputs": [
        {
          "indexed": true,
          "internalType": "address",
          "name": "from",
          "type": "address"
        },
        {
          "indexed": true,
          "internalType": "address",
          "name": "to",
          "type": "address"
        },
        {
          "indexed": true,
          "internalType": "uint256",
          "name": "tokenId",
          "type": "uint256"
        }
      ],
      "name": "Transfer",
      "type": "event"
    },
    {
      "anonymous": false,
      "inputs": [
        {
          "indexed": true,
          "internalType": "bytes32",
          "name": "requestId",
          "type": "bytes32"
        }
      ],
      "name": "requestedCollectible",
      "type": "event"
    },
    {
      "inputs": [
        {
          "internalType": "address",
          "name": "to",
          "type": "address"
        },
        {
          "internalType": "uint256",
          "name": "tokenId",
          "type": "uint256"
        }
      ],
      "name": "approve",
      "outputs": [],
      "stateMutability": "nonpayable",
      "type": "function"
    },
    {
      "inputs": [
        {
          "internalType": "address",
          "name": "owner",
          "type": "address"
        }
      ],
      "name": "balanceOf",
      "outputs": [
        {
          "internalType": "uint256",
          "name": "",
          "type": "uint256"
        }
      ],
      "stateMutability": "view",
      "type": "function"
    },
    {
      "inputs": [],
      "name": "baseURI",
      "outputs": [
        {
          "internalType": "string",
          "name": "",
          "type": "string"
        }
      ],
      "stateMutability": "view",
      "type": "function"
    },
    {
      "inputs": [
        {
          "internalType": "uint256",
          "name": "tokenId",
          "type": "uint256"
        }
      ],
      "name": "getApproved",
      "outputs": [
        {
          "internalType": "address",
          "name": "",
          "type": "address"
        }
      ],
      "stateMutability": "view",
      "type": "function"
    },
    {
      "inputs": [
        {
          "internalType": "address",
          "name": "owner",
          "type": "address"
        },
        {
          "internalType": "address",
          "name": "operator",
          "type": "address"
        }
      ],
      "name": "isApprovedForAll",
      "outputs": [
        {
          "internalType": "bool",
          "name": "",
          "type": "bool"
        }
      ],
      "stateMutability": "view",
      "type": "function"
    },
    {
      "inputs": [],
      "name": "name",
      "outputs": [
        {
          "internalType": "string",
          "name": "",
          "type": "string"
        }
      ],
      "stateMutability": "view",
      "type": "function"
    },
    {
      "inputs": [
        {
          "internalType": "uint256",
          "name": "tokenId",
          "type": "uint256"
        }
      ],
      "name": "ownerOf",
      "outputs": [
        {
          "internalType": "address",
          "name": "",
          "type": "address"
        }
      ],
      "stateMutability": "view",
      "type": "function"
    },
    {
      "inputs": [],
      "name": "randomResult",
      "outputs": [
        {
          "internalType": "uint256",
          "name": "",
          "type": "uint256"
        }
      ],
      "stateMutability": "view",
      "type": "function"
    },
    {
      "inputs": [
        {
          "internalType": "bytes32",
          "name": "requestId",
          "type": "bytes32"
        },
        {
          "internalType": "uint256",
          "name": "randomness",
          "type": "uint256"
        }
      ],
      "name": "rawFulfillRandomness",
      "outputs": [],
      "stateMutability": "nonpayable",
      "type": "function"
    },
    {
      "inputs": [
        {
          "internalType": "bytes32",
          "name": "",
          "type": "bytes32"
        }
      ],
      "name": "requestIdToSender",
      "outputs": [
        {
          "internalType": "address",
          "name": "",
          "type": "address"
        }
      ],
      "stateMutability": "view",
      "type": "function"
    },
    {
      "inputs": [
        {
          "internalType": "bytes32",
          "name": "",
          "type": "bytes32"
        }
      ],
      "name": "requestIdToTokenId",
      "outputs": [
        {
          "internalType": "uint256",
          "name": "",
          "type": "uint256"
        }
      ],
      "stateMutability": "view",
      "type": "function"
    },
    {
      "inputs": [
        {
          "internalType": "bytes32",
          "name": "",
          "type": "bytes32"
        }
      ],
      "name": "requestIdToTokenURI",
      "outputs": [
        {
          "internalType": "string",
          "name": "",
          "type": "string"
        }
      ],
      "stateMutability": "view",
      "type": "function"
    },
    {
      "inputs": [
        {
          "internalType": "address",
          "name": "from",
          "type": "address"
        },
        {
          "internalType": "address",
          "name": "to",
          "type": "address"
        },
        {
          "internalType": "uint256",
          "name": "tokenId",
          "type": "uint256"
        }
      ],
      "name": "safeTransferFrom",
      "outputs": [],
      "stateMutability": "nonpayable",
      "type": "function"
    },
    {
      "inputs": [
        {
          "internalType": "address",
          "name": "from",
          "type": "address"
        },
        {
          "internalType": "address",
          "name": "to",
          "type": "address"
        },
        {
          "internalType": "uint256",
          "name": "tokenId",
          "type": "uint256"
        },
        {
          "internalType": "bytes",
          "name": "_data",
          "type": "bytes"
        }
      ],
      "name": "safeTransferFrom",
      "outputs": [],
      "stateMutability": "nonpayable",
      "type": "function"
    },
    {
      "inputs": [
        {
          "internalType": "address",
          "name": "operator",
          "type": "address"
        },
        {
          "internalType": "bool",
          "name": "approved",
          "type": "bool"
        }
      ],
      "name": "setApprovalForAll",
      "outputs": [],
      "stateMutability": "nonpayable",
      "type": "function"
    },
    {
      "inputs": [
        {
          "internalType": "bytes4",
          "name": "interfaceId",
          "type": "bytes4"
        }
      ],
      "name": "supportsInterface",
      "outputs": [
        {
          "internalType": "bool",
          "name": "",
          "type": "bool"
        }
      ],
      "stateMutability": "view",
      "type": "function"
    },
    {
      "inputs": [],
      "name": "symbol",
      "outputs": [
        {
          "internalType": "string",
          "name": "",
          "type": "string"
        }
      ],
      "stateMutability": "view",
      "type": "function"
    },
    {
      "inputs": [
        {
          "internalType": "uint256",
          "name": "index",
          "type": "uint256"
        }
      ],
      "name": "tokenByIndex",
      "outputs": [
        {
          "internalType": "uint256",
          "name": "",
          "type": "uint256"
        }
      ],
      "stateMutability": "view",
      "type": "function"
    },
    {
      "inputs": [],
      "name": "tokenCounter",
      "outputs": [
        {
          "internalType": "uint256",
          "name": "",
          "type": "uint256"
        }
      ],
      "stateMutability": "view",
      "type": "function"
    },
    {
      "inputs": [
        {
          "internalType": "uint256",
          "name": "",
          "type": "uint256"
        }
      ],
      "name": "tokenIdToBreed",
      "outputs": [
        {
          "internalType": "enum AdvancedCollectible.Breed",
          "name": "",
          "type": "uint8"
        }
      ],
      "stateMutability": "view",
      "type": "function"
    },
    {
      "inputs": [
        {
          "internalType": "address",
          "name": "owner",
          "type": "address"
        },
        {
          "internalType": "uint256",
          "name": "index",
          "type": "uint256"
        }
      ],
      "name": "tokenOfOwnerByIndex",
      "outputs": [
        {
          "internalType": "uint256",
          "name": "",
          "type": "uint256"
        }
      ],
      "stateMutability": "view",
      "type": "function"
    },
    {
      "inputs": [
        {
          "internalType": "uint256",
          "name": "tokenId",
          "type": "uint256"
        }
      ],
      "name": "tokenURI",
      "outputs": [
        {
          "internalType": "string",
          "name": "",
          "type": "string"
        }
      ],
      "stateMutability": "view",
      "type": "function"
    },
    {
      "inputs": [],
      "name": "totalSupply",
      "outputs": [
        {
          "internalType": "uint256",
          "name": "",
          "type": "uint256"
        }
      ],
      "stateMutability": "view",
      "type": "function"
    },
    {
      "inputs": [
        {
          "internalType": "address",
          "name": "from",
          "type": "address"
        },
        {
          "internalType": "address",
          "name": "to",
          "type": "address"
        },
        {
          "internalType": "uint256",
          "name": "tokenId",
          "type": "uint256"
        }
      ],
      "name": "transferFrom",
      "outputs": [],
      "stateMutability": "nonpayable",
      "type": "function"
    },
    {
      "inputs": [
        {
          "internalType": "string",
          "name": "tokenURI",
          "type": "string"
        },
        {
          "internalType": "uint256",
          "name": "userProvidedSeed",
          "type": "uint256"
        }
      ],
      "name": "createCollectible",
      "outputs": [
        {
          "internalType": "bytes32",
          "name": "",
          "type": "bytes32"
        }
      ],
      "stateMutability": "nonpayable",
      "type": "function"
    }
  ],
  "bytecode": "0x60c06040523480156200001157600080fd5b506040516200272e3803806200272e833981810160405260608110156200003757600080fd5b508051602080830151604093840151845180860186526005815264446f67696560d81b8185015285518087019096526003865262444f4760e81b93860193909352929390929184918491906200009d6301ffc9a760e01b6001600160e01b036200015116565b8151620000b2906006906020850190620001d6565b508051620000c8906007906020840190620001d6565b50620000e46380ac58cd60e01b6001600160e01b036200015116565b620000ff635b5e139f60e01b6001600160e01b036200015116565b6200011a63780e9d6360e01b6001600160e01b036200015116565b50506001600160601b0319606092831b811660a052911b166080526000600b55601055505067016345785d8a00006011556200027b565b6001600160e01b03198082161415620001b1576040805162461bcd60e51b815260206004820152601c60248201527f4552433136353a20696e76616c696420696e7465726661636520696400000000604482015290519081900360640190fd5b6001600160e01b0319166000908152602081905260409020805460ff19166001179055565b828054600181600116156101000203166002900490600052602060002090601f016020900481019282601f106200021957805160ff191683800117855562000249565b8280016001018555821562000249579182015b82811115620002495782518255916020019190600101906200022c565b50620002579291506200025b565b5090565b6200027891905b8082111562000257576000815560010162000262565b90565b60805160601c60a05160601c612484620002aa60003980610b82528061115552508061112652506124846000f3fe608060405234801561001057600080fd5b50600436106101735760003560e01c80634372441a116100de57806395d89b4111610097578063c87b56dd11610071578063c87b56dd146105d7578063cbbc3c28146105f4578063d082e38114610635578063e985e9c51461063d57610173565b806395d89b41146104db578063a22cb465146104e3578063b88d4fde1461051157610173565b80634372441a146104335780634f6ccce7146104505780636352211e1461046d5780636c0360eb1461048a57806370a082311461049257806394985ddd146104b857610173565b8063219c0eee11610130578063219c0eee1461035957806322881f881461037657806323b872dd146103935780632f745c59146103c957806342619f66146103f557806342842e0e146103fd57610173565b806301ffc9a71461017857806306fdde03146101b3578063081812fc14610230578063095ea7b31461026957806318160ddd146102975780631f061a29146102b1575b600080fd5b61019f6004803603602081101561018e57600080fd5b50356001600160e01b03191661066b565b604080519115158252519081900360200190f35b6101bb61068e565b6040805160208082528351818301528351919283929083019185019080838360005b838110156101f55781810151838201526020016101dd565b50505050905090810190601f1680156102225780820380516001836020036101000a031916815260200191505b509250505060405180910390f35b61024d6004803603602081101561024657600080fd5b5035610725565b604080516001600160a01b039092168252519081900360200190f35b6102956004803603604081101561027f57600080fd5b506001600160a01b038135169060200135610787565b005b61029f610862565b60408051918252519081900360200190f35b61029f600480360360408110156102c757600080fd5b8101906020810181356401000000008111156102e257600080fd5b8201836020820111156102f457600080fd5b8035906020019184600183028401116401000000008311171561031657600080fd5b91908080601f0160208091040260200160405190810160405280939291908181526020018383808284376000920191909152509295505091359250610873915050565b61024d6004803603602081101561036f57600080fd5b50356108f3565b61029f6004803603602081101561038c57600080fd5b503561090e565b610295600480360360608110156103a957600080fd5b506001600160a01b03813581169160208101359091169060400135610920565b61029f600480360360408110156103df57600080fd5b506001600160a01b038135169060200135610977565b61029f6109a8565b6102956004803603606081101561041357600080fd5b506001600160a01b038135811691602081013590911690604001356109ae565b6101bb6004803603602081101561044957600080fd5b50356109c9565b61029f6004803603602081101561046657600080fd5b5035610a64565b61024d6004803603602081101561048357600080fd5b5035610a80565b6101bb610aae565b61029f600480360360208110156104a857600080fd5b50356001600160a01b0316610b0f565b610295600480360360408110156104ce57600080fd5b5080359060200135610b77565b6101bb610c02565b610295600480360360408110156104f957600080fd5b506001600160a01b0381351690602001351515610c63565b6102956004803603608081101561052757600080fd5b6001600160a01b0382358116926020810135909116916040820135919081019060808101606082013564010000000081111561056257600080fd5b82018360208201111561057457600080fd5b8035906020019184600183028401116401000000008311171561059657600080fd5b91908080601f016020809104026020016040519081016040528093929190818152602001838380828437600092019190915250929550610d68945050505050565b6101bb600480360360208110156105ed57600080fd5b5035610dc6565b6106116004803603602081101561060a57600080fd5b5035611049565b6040518082600281111561062157fe5b60ff16815260200191505060405180910390f35b61029f61105e565b61019f6004803603604081101561065357600080fd5b506001600160a01b0381358116916020013516611064565b6001600160e01b0319811660009081526020819052604090205460ff165b919050565b60068054604080516020601f600260001961010060018816150201909516949094049384018190048102820181019092528281526060939092909183018282801561071a5780601f106106ef5761010080835404028352916020019161071a565b820191906000526020600020905b8154815290600101906020018083116106fd57829003601f168201915b505050505090505b90565b600061073082611092565b61076b5760405162461bcd60e51b815260040180806020018281038252602c81526020018061234d602c913960400191505060405180910390fd5b506000908152600460205260409020546001600160a01b031690565b600061079282610a80565b9050806001600160a01b0316836001600160a01b031614156107e55760405162461bcd60e51b81526004018080602001828103825260218152602001806123fd6021913960400191505060405180910390fd5b806001600160a01b03166107f76110a5565b6001600160a01b031614806108185750610818816108136110a5565b611064565b6108535760405162461bcd60e51b81526004018080602001828103825260388152602001806122a06038913960400191505060405180910390fd5b61085d83836110a9565b505050565b600061086e6002611117565b905090565b60008061088560105460115485611122565b6000818152600c6020908152604080832080546001600160a01b03191633179055600d825290912086519293506108c092909187019061213d565b5060405181907f1407d655ff3c024a96c54a8c62eb99076b252e94f2e0cdc30bcf86248a5f1b0390600090a25092915050565b600c602052600090815260409020546001600160a01b031681565b600f6020526000908152604090205481565b61093161092b6110a5565b826112e6565b61096c5760405162461bcd60e51b815260040180806020018281038252603181526020018061241e6031913960400191505060405180910390fd5b61085d83838361138a565b6001600160a01b038216600090815260016020526040812061099f908363ffffffff6114e816565b90505b92915050565b60125481565b61085d83838360405180602001604052806000815250610d68565b600d6020908152600091825260409182902080548351601f600260001961010060018616150201909316929092049182018490048402810184019094528084529091830182828015610a5c5780601f10610a3157610100808354040283529160200191610a5c565b820191906000526020600020905b815481529060010190602001808311610a3f57829003601f168201915b505050505081565b600080610a7860028463ffffffff6114f416565b509392505050565b60006109a282604051806060016040528060298152602001612302602991396002919063ffffffff61151016565b60098054604080516020601f600260001961010060018816150201909516949094049384018190048102820181019092528281526060939092909183018282801561071a5780601f106106ef5761010080835404028352916020019161071a565b60006001600160a01b038216610b565760405162461bcd60e51b815260040180806020018281038252602a8152602001806122d8602a913960400191505060405180910390fd5b6001600160a01b03821660009081526001602052604090206109a290611117565b336001600160a01b037f00000000000000000000000000000000000000000000000000000000000000001614610bf4576040805162461bcd60e51b815260206004820152601f60248201527f4f6e6c7920565246436f6f7264696e61746f722063616e2066756c66696c6c00604482015290519081900360640190fd5b610bfe828261151d565b5050565b60078054604080516020601f600260001961010060018816150201909516949094049384018190048102820181019092528281526060939092909183018282801561071a5780601f106106ef5761010080835404028352916020019161071a565b610c6b6110a5565b6001600160a01b0316826001600160a01b03161415610cd1576040805162461bcd60e51b815260206004820152601960248201527f4552433732313a20617070726f766520746f2063616c6c657200000000000000604482015290519081900360640190fd5b8060056000610cde6110a5565b6001600160a01b03908116825260208083019390935260409182016000908120918716808252919093529120805460ff191692151592909217909155610d226110a5565b60408051841515815290516001600160a01b0392909216917f17307eab39ab6107e8899845ad3d59bd9653f200f220920489ca2b5937696c319181900360200190a35050565b610d79610d736110a5565b836112e6565b610db45760405162461bcd60e51b815260040180806020018281038252603181526020018061241e6031913960400191505060405180910390fd5b610dc08484848461163d565b50505050565b6060610dd182611092565b610e0c5760405162461bcd60e51b815260040180806020018281038252602f8152602001806123ce602f913960400191505060405180910390fd5b60008281526008602090815260409182902080548351601f6002600019610100600186161502019093169290920491820184900484028101840190945280845260609392830182828015610ea15780601f10610e7657610100808354040283529160200191610ea1565b820191906000526020600020905b815481529060010190602001808311610e8457829003601f168201915b505050505090506060610eb2610aae565b9050805160001415610ec657509050610689565b815115610f875780826040516020018083805190602001908083835b60208310610f015780518252601f199092019160209182019101610ee2565b51815160209384036101000a600019018019909216911617905285519190930192850191508083835b60208310610f495780518252601f199092019160209182019101610f2a565b6001836020036101000a0380198251168184511680821785525050505050509050019250505060405160208183030381529060405292505050610689565b80610f918561168f565b6040516020018083805190602001908083835b60208310610fc35780518252601f199092019160209182019101610fa4565b51815160209384036101000a600019018019909216911617905285519190930192850191508083835b6020831061100b5780518252601f199092019160209182019101610fec565b6001836020036101000a0380198251168184511680821785525050505050509050019250505060405160208183030381529060405292505050919050565b600e6020526000908152604090205460ff1681565b600b5481565b6001600160a01b03918216600090815260056020908152604080832093909416825291909152205460ff1690565b60006109a260028363ffffffff61176a16565b3390565b600081815260046020526040902080546001600160a01b0319166001600160a01b03841690811790915581906110de82610a80565b6001600160a01b03167f8c5be1e5ebec7d5bd14f71427d1e84f3dd0314c0f7b2291e5b200ac8c7c3b92560405160405180910390a45050565b60006109a282611776565b60007f00000000000000000000000000000000000000000000000000000000000000006001600160a01b0316634000aea07f000000000000000000000000000000000000000000000000000000000000000085878660405160200180838152602001828152602001925050506040516020818303038152906040526040518463ffffffff1660e01b815260040180846001600160a01b03166001600160a01b0316815260200183815260200180602001828103825283818151815260200191508051906020019080838360005b838110156112075781810151838201526020016111ef565b50505050905090810190601f1680156112345780820380516001836020036101000a031916815260200191505b50945050505050602060405180830381600087803b15801561125557600080fd5b505af1158015611269573d6000803e3d6000fd5b505050506040513d602081101561127f57600080fd5b50506000848152600a602052604081205461129f9086908590309061177a565b6000868152600a60205260409020549091506112c290600163ffffffff6117c116565b6000868152600a60205260409020556112db858261181b565b9150505b9392505050565b60006112f182611092565b61132c5760405162461bcd60e51b815260040180806020018281038252602c815260200180612274602c913960400191505060405180910390fd5b600061133783610a80565b9050806001600160a01b0316846001600160a01b031614806113725750836001600160a01b031661136784610725565b6001600160a01b0316145b8061138257506113828185611064565b949350505050565b826001600160a01b031661139d82610a80565b6001600160a01b0316146113e25760405162461bcd60e51b81526004018080602001828103825260298152602001806123a56029913960400191505060405180910390fd5b6001600160a01b0382166114275760405162461bcd60e51b815260040180806020018281038252602481526020018061222a6024913960400191505060405180910390fd5b61143283838361085d565b61143d6000826110a9565b6001600160a01b0383166000908152600160205260409020611465908263ffffffff61184716565b506001600160a01b038216600090815260016020526040902061148e908263ffffffff61185316565b506114a16002828463ffffffff61185f16565b5080826001600160a01b0316846001600160a01b03167fddf252ad1be2c89b69c2b068fc378daa952ba7f163c4a11628f55a4df523b3ef60405160405180910390a4505050565b600061099f8383611875565b600080808061150386866118d9565b9097909650945050505050565b6000611382848484611954565b6000828152600c6020908152604080832054600d83529281902080548251601f600260001960018516156101000201909316929092049182018590048502810185019093528083526001600160a01b03909416936060938301828280156115c55780601f1061159a576101008083540402835291602001916115c5565b820191906000526020600020905b8154815290600101906020018083116115a857829003601f168201915b505050505090506000600b5490506115dd8382611a1e565b6115e78183611a38565b60006003850660028111156115f857fe5b6000838152600e602052604090208054919250829160ff1916600183600281111561161f57fe5b0217905550506000948552600f602052604090942093909355505050565b61164884848461138a565b61165484848484611a9b565b610dc05760405162461bcd60e51b81526004018080602001828103825260328152602001806121f86032913960400191505060405180910390fd5b6060816116b457506040805180820190915260018152600360fc1b6020820152610689565b8160005b81156116cc57600101600a820491506116b8565b60608167ffffffffffffffff811180156116e557600080fd5b506040519080825280601f01601f191660200182016040528015611710576020820181803683370190505b50859350905060001982015b831561176157600a840660300160f81b8282806001900393508151811061173f57fe5b60200101906001600160f81b031916908160001a905350600a8404935061171c565b50949350505050565b600061099f8383611c1b565b5490565b60408051602080820196909652808201949094526001600160a01b039290921660608401526080808401919091528151808403909101815260a09092019052805191012090565b60008282018381101561099f576040805162461bcd60e51b815260206004820152601b60248201527f536166654d6174683a206164646974696f6e206f766572666c6f770000000000604482015290519081900360640190fd5b604080516020808201949094528082019290925280518083038201815260609092019052805191012090565b600061099f8383611c33565b600061099f8383611cf9565b600061138284846001600160a01b038516611d43565b815460009082106118b75760405162461bcd60e51b81526004018080602001828103825260228152602001806121d66022913960400191505060405180910390fd5b8260000182815481106118c657fe5b9060005260206000200154905092915050565b81546000908190831061191d5760405162461bcd60e51b815260040180806020018281038252602281526020018061232b6022913960400191505060405180910390fd5b600084600001848154811061192e57fe5b906000526020600020906002020190508060000154816001015492509250509250929050565b600082815260018401602052604081205482816119ef5760405162461bcd60e51b81526004018080602001828103825283818151815260200191508051906020019080838360005b838110156119b457818101518382015260200161199c565b50505050905090810190601f1680156119e15780820380516001836020036101000a031916815260200191505b509250505060405180910390fd5b50846000016001820381548110611a0257fe5b9060005260206000209060020201600101549150509392505050565b610bfe828260405180602001604052806000815250611dda565b611a4182611092565b611a7c5760405162461bcd60e51b815260040180806020018281038252602c815260200180612379602c913960400191505060405180910390fd5b6000828152600860209081526040909120825161085d9284019061213d565b6000611aaf846001600160a01b0316611e2c565b611abb57506001611382565b6060611be1630a85bd0160e11b611ad06110a5565b88878760405160240180856001600160a01b03166001600160a01b03168152602001846001600160a01b03166001600160a01b0316815260200183815260200180602001828103825283818151815260200191508051906020019080838360005b83811015611b49578181015183820152602001611b31565b50505050905090810190601f168015611b765780820380516001836020036101000a031916815260200191505b5095505050505050604051602081830303815290604052906001600160e01b0319166020820180516001600160e01b0383818316178352505050506040518060600160405280603281526020016121f8603291396001600160a01b038816919063ffffffff611e3216565b90506000818060200190516020811015611bfa57600080fd5b50516001600160e01b031916630a85bd0160e11b1492505050949350505050565b60009081526001919091016020526040902054151590565b60008181526001830160205260408120548015611cef5783546000198083019190810190600090879083908110611c6657fe5b9060005260206000200154905080876000018481548110611c8357fe5b600091825260208083209091019290925582815260018981019092526040902090840190558654879080611cb357fe5b600190038181906000526020600020016000905590558660010160008781526020019081526020016000206000905560019450505050506109a2565b60009150506109a2565b6000611d058383611c1b565b611d3b575081546001818101845560008481526020808220909301849055845484825282860190935260409020919091556109a2565b5060006109a2565b600082815260018401602052604081205480611da85750506040805180820182528381526020808201848152865460018181018955600089815284812095516002909302909501918255915190820155865486845281880190925292909120556112df565b82856000016001830381548110611dbb57fe5b90600052602060002090600202016001018190555060009150506112df565b611de48383611e41565b611df16000848484611a9b565b61085d5760405162461bcd60e51b81526004018080602001828103825260328152602001806121f86032913960400191505060405180910390fd5b3b151590565b60606113828484600085611f7b565b6001600160a01b038216611e9c576040805162461bcd60e51b815260206004820181905260248201527f4552433732313a206d696e7420746f20746865207a65726f2061646472657373604482015290519081900360640190fd5b611ea581611092565b15611ef7576040805162461bcd60e51b815260206004820152601c60248201527f4552433732313a20746f6b656e20616c7265616479206d696e74656400000000604482015290519081900360640190fd5b611f036000838361085d565b6001600160a01b0382166000908152600160205260409020611f2b908263ffffffff61185316565b50611f3e6002828463ffffffff61185f16565b5060405181906001600160a01b038416906000907fddf252ad1be2c89b69c2b068fc378daa952ba7f163c4a11628f55a4df523b3ef908290a45050565b606082471015611fbc5760405162461bcd60e51b815260040180806020018281038252602681526020018061224e6026913960400191505060405180910390fd5b611fc585611e2c565b612016576040805162461bcd60e51b815260206004820152601d60248201527f416464726573733a2063616c6c20746f206e6f6e2d636f6e7472616374000000604482015290519081900360640190fd5b60006060866001600160a01b031685876040518082805190602001908083835b602083106120555780518252601f199092019160209182019101612036565b6001836020036101000a03801982511681845116808217855250505050505090500191505060006040518083038185875af1925050503d80600081146120b7576040519150601f19603f3d011682016040523d82523d6000602084013e6120bc565b606091505b50915091506120cc8282866120d7565b979650505050505050565b606083156120e65750816112df565b8251156120f65782518084602001fd5b60405162461bcd60e51b81526020600482018181528451602484015284518593919283926044019190850190808383600083156119b457818101518382015260200161199c565b828054600181600116156101000203166002900490600052602060002090601f016020900481019282601f1061217e57805160ff19168380011785556121ab565b828001600101855582156121ab579182015b828111156121ab578251825591602001919060010190612190565b506121b79291506121bb565b5090565b61072291905b808211156121b757600081556001016121c156fe456e756d657261626c655365743a20696e646578206f7574206f6620626f756e64734552433732313a207472616e7366657220746f206e6f6e20455243373231526563656976657220696d706c656d656e7465724552433732313a207472616e7366657220746f20746865207a65726f2061646472657373416464726573733a20696e73756666696369656e742062616c616e636520666f722063616c6c4552433732313a206f70657261746f7220717565727920666f72206e6f6e6578697374656e7420746f6b656e4552433732313a20617070726f76652063616c6c6572206973206e6f74206f776e6572206e6f7220617070726f76656420666f7220616c6c4552433732313a2062616c616e636520717565727920666f7220746865207a65726f20616464726573734552433732313a206f776e657220717565727920666f72206e6f6e6578697374656e7420746f6b656e456e756d657261626c654d61703a20696e646578206f7574206f6620626f756e64734552433732313a20617070726f76656420717565727920666f72206e6f6e6578697374656e7420746f6b656e4552433732314d657461646174613a2055524920736574206f66206e6f6e6578697374656e7420746f6b656e4552433732313a207472616e73666572206f6620746f6b656e2074686174206973206e6f74206f776e4552433732314d657461646174613a2055524920717565727920666f72206e6f6e6578697374656e7420746f6b656e4552433732313a20617070726f76616c20746f2063757272656e74206f776e65724552433732313a207472616e736665722063616c6c6572206973206e6f74206f776e6572206e6f7220617070726f766564a26469706673582212203ac060a004602a1984c6215f965c82cb38c0c32f605c26a8b2c2399f35dcca0a64736f6c63430006060033",
  "immutableReferences": {
    "240": [
      {
        "length": 32,
        "start": 4390
      }
    ],
    "242": [
      {
        "length": 32,
        "start": 2946
      },
      {
        "length": 32,
        "start": 4437
      }
    ]
  },
  "source": "pragma solidity 0.6.6;\r\n\r\nimport \"@openzeppelin/contracts/token/ERC721/ERC721.sol\";\r\nimport \"@chainlink/contracts/src/v0.6/VRFConsumerBase.sol\";\r\n\r\ncontract AdvancedCollectible is ERC721, VRFConsumerBase {\r\n  uint256 public tokenCounter;\r\n  enum Breed { PUG, SHIBA_INU, BRENARD }\r\n  // add other things\r\n  mapping(bytes32 => address) public requestIdToSender;\r\n  mapping(bytes32 => string) public requestIdToTokenURI;\r\n  mapping(uint256 => Breed) public tokenIdToBreed;\r\n  mapping(bytes32 => uint256) public requestIdToTokenId;\r\n\r\n  event requestedCollectible(bytes32 indexed requestId);\r\n\r\n  bytes32 internal keyHash;\r\n  uint256 internal fee;\r\n  uint256 public randomResult;\r\n\r\n  constructor(\r\n    address _VRFCoordinator,\r\n    address _LinkToken,\r\n    bytes32 _keyHash\r\n  ) public VRFConsumerBase(_VRFCoordinator, _LinkToken) ERC721(\"Dogie\", \"DOG\") {\r\n    tokenCounter = 0;\r\n    keyHash = _keyHash;\r\n    fee = 0.1 * 10**18;\r\n  }\r\n\r\n  function createCollectible(string memory tokenURI, uint256 userProvidedSeed)\r\n    public\r\n    returns (bytes32)\r\n  {\r\n    bytes32 requestId = requestRandomness(keyHash, fee, userProvidedSeed);\r\n    requestIdToSender[requestId] = msg.sender;\r\n    requestIdToTokenURI[requestId] = tokenURI;\r\n    emit requestedCollectible(requestId);\r\n  }\r\n\r\n  function fulfillRandomness(bytes32 requestId, uint256 randomNumber)\r\n    internal\r\n    override\r\n  {\r\n    address dogOwner = requestIdToSender[requestId];\r\n    string memory tokenURI = requestIdToTokenURI[requestId];\r\n    uint256 newItemId = tokenCounter;\r\n    _safeMint(dogOwner, newItemId);\r\n    _setTokenURI(newItemId, tokenURI);\r\n    Breed breed = Breed(randomNumber % 3);\r\n    tokenIdToBreed[newItemId] = breed;\r\n    requestIdToTokenId[requestId] = newItemId;\r\n  }\r\n}\r\n",
  "sourcePath": "D:/my-nft-mix/contracts/AdvancedCollectible.sol",
  "compiler": {
    "name": "solc",
    "version": "0.6.6+commit.6c089d02.Emscripten.clang"
  },
  "schemaVersion": "3.4.1",
  "updatedAt": "2021-05-28T06:05:05.010Z",
  "devdoc": {
    "methods": {
      "approve(address,uint256)": {
        "details": "See {IERC721-approve}."
      },
      "balanceOf(address)": {
        "details": "See {IERC721-balanceOf}."
      },
      "baseURI()": {
        "details": "Returns the base URI set via {_setBaseURI}. This will be automatically added as a prefix in {tokenURI} to each token's URI, or to the token ID if no specific URI is set for that token ID."
      },
      "getApproved(uint256)": {
        "details": "See {IERC721-getApproved}."
      },
      "isApprovedForAll(address,address)": {
        "details": "See {IERC721-isApprovedForAll}."
      },
      "name()": {
        "details": "See {IERC721Metadata-name}."
      },
      "ownerOf(uint256)": {
        "details": "See {IERC721-ownerOf}."
      },
      "safeTransferFrom(address,address,uint256)": {
        "details": "See {IERC721-safeTransferFrom}."
      },
      "safeTransferFrom(address,address,uint256,bytes)": {
        "details": "See {IERC721-safeTransferFrom}."
      },
      "setApprovalForAll(address,bool)": {
        "details": "See {IERC721-setApprovalForAll}."
      },
      "supportsInterface(bytes4)": {
        "details": "See {IERC165-supportsInterface}.     * Time complexity O(1), guaranteed to always use less than 30 000 gas."
      },
      "symbol()": {
        "details": "See {IERC721Metadata-symbol}."
      },
      "tokenByIndex(uint256)": {
        "details": "See {IERC721Enumerable-tokenByIndex}."
      },
      "tokenOfOwnerByIndex(address,uint256)": {
        "details": "See {IERC721Enumerable-tokenOfOwnerByIndex}."
      },
      "tokenURI(uint256)": {
        "details": "See {IERC721Metadata-tokenURI}."
      },
      "totalSupply()": {
        "details": "See {IERC721Enumerable-totalSupply}."
      },
      "transferFrom(address,address,uint256)": {
        "details": "See {IERC721-transferFrom}."
      }
    }
  },
  "userdoc": {
    "methods": {}
  }
}