{
  "contractName": "SimpleCollectible",
  "abi": [
    {
      "inputs": [],
      "stateMutability": "nonpayable",
      "type": "constructor"
    },
    {
      "anonymous": false,
      "inputs": [
        {
          "indexed": true,
          "internalType": "address",
          "name": "owner",
          "type": "address"
        },
        {
          "indexed": true,
          "internalType": "address",
          "name": "approved",
          "type": "address"
        },
        {
          "indexed": true,
          "internalType": "uint256",
          "name": "tokenId",
          "type": "uint256"
        }
      ],
      "name": "Approval",
      "type": "event"
    },
    {
      "anonymous": false,
      "inputs": [
        {
          "indexed": true,
          "internalType": "address",
          "name": "owner",
          "type": "address"
        },
        {
          "indexed": true,
          "internalType": "address",
          "name": "operator",
          "type": "address"
        },
        {
          "indexed": false,
          "internalType": "bool",
          "name": "approved",
          "type": "bool"
        }
      ],
      "name": "ApprovalForAll",
      "type": "event"
    },
    {
      "anonymous": false,
      "inputs": [
        {
          "indexed": true,
          "internalType": "address",
          "name": "from",
          "type": "address"
        },
        {
          "indexed": true,
          "internalType": "address",
          "name": "to",
          "type": "address"
        },
        {
          "indexed": true,
          "internalType": "uint256",
          "name": "tokenId",
          "type": "uint256"
        }
      ],
      "name": "Transfer",
      "type": "event"
    },
    {
      "inputs": [
        {
          "internalType": "address",
          "name": "to",
          "type": "address"
        },
        {
          "internalType": "uint256",
          "name": "tokenId",
          "type": "uint256"
        }
      ],
      "name": "approve",
      "outputs": [],
      "stateMutability": "nonpayable",
      "type": "function"
    },
    {
      "inputs": [
        {
          "internalType": "address",
          "name": "owner",
          "type": "address"
        }
      ],
      "name": "balanceOf",
      "outputs": [
        {
          "internalType": "uint256",
          "name": "",
          "type": "uint256"
        }
      ],
      "stateMutability": "view",
      "type": "function",
      "constant": true
    },
    {
      "inputs": [],
      "name": "baseURI",
      "outputs": [
        {
          "internalType": "string",
          "name": "",
          "type": "string"
        }
      ],
      "stateMutability": "view",
      "type": "function",
      "constant": true
    },
    {
      "inputs": [
        {
          "internalType": "uint256",
          "name": "tokenId",
          "type": "uint256"
        }
      ],
      "name": "getApproved",
      "outputs": [
        {
          "internalType": "address",
          "name": "",
          "type": "address"
        }
      ],
      "stateMutability": "view",
      "type": "function",
      "constant": true
    },
    {
      "inputs": [
        {
          "internalType": "address",
          "name": "owner",
          "type": "address"
        },
        {
          "internalType": "address",
          "name": "operator",
          "type": "address"
        }
      ],
      "name": "isApprovedForAll",
      "outputs": [
        {
          "internalType": "bool",
          "name": "",
          "type": "bool"
        }
      ],
      "stateMutability": "view",
      "type": "function",
      "constant": true
    },
    {
      "inputs": [],
      "name": "name",
      "outputs": [
        {
          "internalType": "string",
          "name": "",
          "type": "string"
        }
      ],
      "stateMutability": "view",
      "type": "function",
      "constant": true
    },
    {
      "inputs": [
        {
          "internalType": "uint256",
          "name": "tokenId",
          "type": "uint256"
        }
      ],
      "name": "ownerOf",
      "outputs": [
        {
          "internalType": "address",
          "name": "",
          "type": "address"
        }
      ],
      "stateMutability": "view",
      "type": "function",
      "constant": true
    },
    {
      "inputs": [
        {
          "internalType": "address",
          "name": "from",
          "type": "address"
        },
        {
          "internalType": "address",
          "name": "to",
          "type": "address"
        },
        {
          "internalType": "uint256",
          "name": "tokenId",
          "type": "uint256"
        }
      ],
      "name": "safeTransferFrom",
      "outputs": [],
      "stateMutability": "nonpayable",
      "type": "function"
    },
    {
      "inputs": [
        {
          "internalType": "address",
          "name": "from",
          "type": "address"
        },
        {
          "internalType": "address",
          "name": "to",
          "type": "address"
        },
        {
          "internalType": "uint256",
          "name": "tokenId",
          "type": "uint256"
        },
        {
          "internalType": "bytes",
          "name": "_data",
          "type": "bytes"
        }
      ],
      "name": "safeTransferFrom",
      "outputs": [],
      "stateMutability": "nonpayable",
      "type": "function"
    },
    {
      "inputs": [
        {
          "internalType": "address",
          "name": "operator",
          "type": "address"
        },
        {
          "internalType": "bool",
          "name": "approved",
          "type": "bool"
        }
      ],
      "name": "setApprovalForAll",
      "outputs": [],
      "stateMutability": "nonpayable",
      "type": "function"
    },
    {
      "inputs": [
        {
          "internalType": "bytes4",
          "name": "interfaceId",
          "type": "bytes4"
        }
      ],
      "name": "supportsInterface",
      "outputs": [
        {
          "internalType": "bool",
          "name": "",
          "type": "bool"
        }
      ],
      "stateMutability": "view",
      "type": "function",
      "constant": true
    },
    {
      "inputs": [],
      "name": "symbol",
      "outputs": [
        {
          "internalType": "string",
          "name": "",
          "type": "string"
        }
      ],
      "stateMutability": "view",
      "type": "function",
      "constant": true
    },
    {
      "inputs": [
        {
          "internalType": "uint256",
          "name": "index",
          "type": "uint256"
        }
      ],
      "name": "tokenByIndex",
      "outputs": [
        {
          "internalType": "uint256",
          "name": "",
          "type": "uint256"
        }
      ],
      "stateMutability": "view",
      "type": "function",
      "constant": true
    },
    {
      "inputs": [],
      "name": "tokenCounter",
      "outputs": [
        {
          "internalType": "uint256",
          "name": "",
          "type": "uint256"
        }
      ],
      "stateMutability": "view",
      "type": "function",
      "constant": true
    },
    {
      "inputs": [
        {
          "internalType": "address",
          "name": "owner",
          "type": "address"
        },
        {
          "internalType": "uint256",
          "name": "index",
          "type": "uint256"
        }
      ],
      "name": "tokenOfOwnerByIndex",
      "outputs": [
        {
          "internalType": "uint256",
          "name": "",
          "type": "uint256"
        }
      ],
      "stateMutability": "view",
      "type": "function",
      "constant": true
    },
    {
      "inputs": [
        {
          "internalType": "uint256",
          "name": "tokenId",
          "type": "uint256"
        }
      ],
      "name": "tokenURI",
      "outputs": [
        {
          "internalType": "string",
          "name": "",
          "type": "string"
        }
      ],
      "stateMutability": "view",
      "type": "function",
      "constant": true
    },
    {
      "inputs": [],
      "name": "totalSupply",
      "outputs": [
        {
          "internalType": "uint256",
          "name": "",
          "type": "uint256"
        }
      ],
      "stateMutability": "view",
      "type": "function",
      "constant": true
    },
    {
      "inputs": [
        {
          "internalType": "address",
          "name": "from",
          "type": "address"
        },
        {
          "internalType": "address",
          "name": "to",
          "type": "address"
        },
        {
          "internalType": "uint256",
          "name": "tokenId",
          "type": "uint256"
        }
      ],
      "name": "transferFrom",
      "outputs": [],
      "stateMutability": "nonpayable",
      "type": "function"
    },
    {
      "inputs": [
        {
          "internalType": "string",
          "name": "tokenURI",
          "type": "string"
        }
      ],
      "name": "createCollectible",
      "outputs": [
        {
          "internalType": "uint256",
          "name": "",
          "type": "uint256"
        }
      ],
      "stateMutability": "nonpayable",
      "type": "function"
    }
  ],
  "bytecode": "0x60806040523480156200001157600080fd5b506040805180820182526005815264446f67696560d81b60208083019190915282518084019093526003835262444f4760e81b9083015290620000646301ffc9a760e01b6001600160e01b03620000ee16565b81516200007990600690602085019062000173565b5080516200008f90600790602084019062000173565b50620000ab6380ac58cd60e01b6001600160e01b03620000ee16565b620000c6635b5e139f60e01b6001600160e01b03620000ee16565b620000e163780e9d6360e01b6001600160e01b03620000ee16565b50506000600a5562000218565b6001600160e01b031980821614156200014e576040805162461bcd60e51b815260206004820152601c60248201527f4552433136353a20696e76616c696420696e7465726661636520696400000000604482015290519081900360640190fd5b6001600160e01b0319166000908152602081905260409020805460ff19166001179055565b828054600181600116156101000203166002900490600052602060002090601f016020900481019282601f10620001b657805160ff1916838001178555620001e6565b82800160010185558215620001e6579182015b82811115620001e6578251825591602001919060010190620001c9565b50620001f4929150620001f8565b5090565b6200021591905b80821115620001f45760008155600101620001ff565b90565b611d9a80620002286000396000f3fe608060405234801561001057600080fd5b50600436106101215760003560e01c80634f6ccce7116100ad578063a22cb46511610071578063a22cb4651461040d578063b88d4fde1461043b578063c87b56dd14610501578063d082e3811461051e578063e985e9c51461052657610121565b80634f6ccce71461039d5780636352211e146103ba5780636c0360eb146103d757806370a08231146103df57806395d89b411461040557610121565b806318160ddd116100f457806318160ddd1461024557806323b872dd1461025f5780632f745c591461029557806331f1f3c3146102c157806342842e0e1461036757610121565b806301ffc9a71461012657806306fdde0314610161578063081812fc146101de578063095ea7b314610217575b600080fd5b61014d6004803603602081101561013c57600080fd5b50356001600160e01b031916610554565b604080519115158252519081900360200190f35b610169610577565b6040805160208082528351818301528351919283929083019185019080838360005b838110156101a357818101518382015260200161018b565b50505050905090810190601f1680156101d05780820380516001836020036101000a031916815260200191505b509250505060405180910390f35b6101fb600480360360208110156101f457600080fd5b503561060e565b604080516001600160a01b039092168252519081900360200190f35b6102436004803603604081101561022d57600080fd5b506001600160a01b038135169060200135610670565b005b61024d61074b565b60408051918252519081900360200190f35b6102436004803603606081101561027557600080fd5b506001600160a01b0381358116916020810135909116906040013561075c565b61024d600480360360408110156102ab57600080fd5b506001600160a01b0381351690602001356107b3565b61024d600480360360208110156102d757600080fd5b8101906020810181356401000000008111156102f257600080fd5b82018360208201111561030457600080fd5b8035906020019184600183028401116401000000008311171561032657600080fd5b91908080601f0160208091040260200160405190810160405280939291908181526020018383808284376000920191909152509295506107e4945050505050565b6102436004803603606081101561037d57600080fd5b506001600160a01b0381358116916020810135909116906040013561080d565b61024d600480360360208110156103b357600080fd5b5035610828565b6101fb600480360360208110156103d057600080fd5b5035610844565b610169610872565b61024d600480360360208110156103f557600080fd5b50356001600160a01b03166108d3565b61016961093b565b6102436004803603604081101561042357600080fd5b506001600160a01b038135169060200135151561099c565b6102436004803603608081101561045157600080fd5b6001600160a01b0382358116926020810135909116916040820135919081019060808101606082013564010000000081111561048c57600080fd5b82018360208201111561049e57600080fd5b803590602001918460018302840111640100000000831117156104c057600080fd5b91908080601f016020809104026020016040519081016040528093929190818152602001838380828437600092019190915250929550610aa1945050505050565b6101696004803603602081101561051757600080fd5b5035610aff565b61024d610d82565b61014d6004803603604081101561053c57600080fd5b506001600160a01b0381358116916020013516610d88565b6001600160e01b0319811660009081526020819052604090205460ff165b919050565b60068054604080516020601f60026000196101006001881615020190951694909404938401819004810282018101909252828152606093909290918301828280156106035780601f106105d857610100808354040283529160200191610603565b820191906000526020600020905b8154815290600101906020018083116105e657829003601f168201915b505050505090505b90565b600061061982610db6565b6106545760405162461bcd60e51b815260040180806020018281038252602c815260200180611c63602c913960400191505060405180910390fd5b506000908152600460205260409020546001600160a01b031690565b600061067b82610844565b9050806001600160a01b0316836001600160a01b031614156106ce5760405162461bcd60e51b8152600401808060200182810382526021815260200180611d136021913960400191505060405180910390fd5b806001600160a01b03166106e0610dc9565b6001600160a01b031614806107015750610701816106fc610dc9565b610d88565b61073c5760405162461bcd60e51b8152600401808060200182810382526038815260200180611bb66038913960400191505060405180910390fd5b6107468383610dcd565b505050565b60006107576002610e3b565b905090565b61076d610767610dc9565b82610e46565b6107a85760405162461bcd60e51b8152600401808060200182810382526031815260200180611d346031913960400191505060405180910390fd5b610746838383610eea565b6001600160a01b03821660009081526001602052604081206107db908363ffffffff61104816565b90505b92915050565b600a546000906107f43382611054565b6107fe8184611072565b600a8054600101905592915050565b61074683838360405180602001604052806000815250610aa1565b60008061083c60028463ffffffff6110d516565b509392505050565b60006107de82604051806060016040528060298152602001611c18602991396002919063ffffffff6110f116565b60098054604080516020601f60026000196101006001881615020190951694909404938401819004810282018101909252828152606093909290918301828280156106035780601f106105d857610100808354040283529160200191610603565b60006001600160a01b03821661091a5760405162461bcd60e51b815260040180806020018281038252602a815260200180611bee602a913960400191505060405180910390fd5b6001600160a01b03821660009081526001602052604090206107de90610e3b565b60078054604080516020601f60026000196101006001881615020190951694909404938401819004810282018101909252828152606093909290918301828280156106035780601f106105d857610100808354040283529160200191610603565b6109a4610dc9565b6001600160a01b0316826001600160a01b03161415610a0a576040805162461bcd60e51b815260206004820152601960248201527f4552433732313a20617070726f766520746f2063616c6c657200000000000000604482015290519081900360640190fd5b8060056000610a17610dc9565b6001600160a01b03908116825260208083019390935260409182016000908120918716808252919093529120805460ff191692151592909217909155610a5b610dc9565b60408051841515815290516001600160a01b0392909216917f17307eab39ab6107e8899845ad3d59bd9653f200f220920489ca2b5937696c319181900360200190a35050565b610ab2610aac610dc9565b83610e46565b610aed5760405162461bcd60e51b8152600401808060200182810382526031815260200180611d346031913960400191505060405180910390fd5b610af984848484611108565b50505050565b6060610b0a82610db6565b610b455760405162461bcd60e51b815260040180806020018281038252602f815260200180611ce4602f913960400191505060405180910390fd5b60008281526008602090815260409182902080548351601f6002600019610100600186161502019093169290920491820184900484028101840190945280845260609392830182828015610bda5780601f10610baf57610100808354040283529160200191610bda565b820191906000526020600020905b815481529060010190602001808311610bbd57829003601f168201915b505050505090506060610beb610872565b9050805160001415610bff57509050610572565b815115610cc05780826040516020018083805190602001908083835b60208310610c3a5780518252601f199092019160209182019101610c1b565b51815160209384036101000a600019018019909216911617905285519190930192850191508083835b60208310610c825780518252601f199092019160209182019101610c63565b6001836020036101000a0380198251168184511680821785525050505050509050019250505060405160208183030381529060405292505050610572565b80610cca8561115a565b6040516020018083805190602001908083835b60208310610cfc5780518252601f199092019160209182019101610cdd565b51815160209384036101000a600019018019909216911617905285519190930192850191508083835b60208310610d445780518252601f199092019160209182019101610d25565b6001836020036101000a0380198251168184511680821785525050505050509050019250505060405160208183030381529060405292505050919050565b600a5481565b6001600160a01b03918216600090815260056020908152604080832093909416825291909152205460ff1690565b60006107de60028363ffffffff61123516565b3390565b600081815260046020526040902080546001600160a01b0319166001600160a01b0384169081179091558190610e0282610844565b6001600160a01b03167f8c5be1e5ebec7d5bd14f71427d1e84f3dd0314c0f7b2291e5b200ac8c7c3b92560405160405180910390a45050565b60006107de82611241565b6000610e5182610db6565b610e8c5760405162461bcd60e51b815260040180806020018281038252602c815260200180611b8a602c913960400191505060405180910390fd5b6000610e9783610844565b9050806001600160a01b0316846001600160a01b03161480610ed25750836001600160a01b0316610ec78461060e565b6001600160a01b0316145b80610ee25750610ee28185610d88565b949350505050565b826001600160a01b0316610efd82610844565b6001600160a01b031614610f425760405162461bcd60e51b8152600401808060200182810382526029815260200180611cbb6029913960400191505060405180910390fd5b6001600160a01b038216610f875760405162461bcd60e51b8152600401808060200182810382526024815260200180611b666024913960400191505060405180910390fd5b610f92838383610746565b610f9d600082610dcd565b6001600160a01b0383166000908152600160205260409020610fc5908263ffffffff61124516565b506001600160a01b0382166000908152600160205260409020610fee908263ffffffff61125116565b506110016002828463ffffffff61125d16565b5080826001600160a01b0316846001600160a01b03167fddf252ad1be2c89b69c2b068fc378daa952ba7f163c4a11628f55a4df523b3ef60405160405180910390a4505050565b60006107db8383611273565b61106e8282604051806020016040528060008152506112d7565b5050565b61107b82610db6565b6110b65760405162461bcd60e51b815260040180806020018281038252602c815260200180611c8f602c913960400191505060405180910390fd5b6000828152600860209081526040909120825161074692840190611a79565b60008080806110e48686611329565b9097909650945050505050565b60006110fe8484846113a4565b90505b9392505050565b611113848484610eea565b61111f8484848461146e565b610af95760405162461bcd60e51b8152600401808060200182810382526032815260200180611b346032913960400191505060405180910390fd5b60608161117f57506040805180820190915260018152600360fc1b6020820152610572565b8160005b811561119757600101600a82049150611183565b60608167ffffffffffffffff811180156111b057600080fd5b506040519080825280601f01601f1916602001820160405280156111db576020820181803683370190505b50859350905060001982015b831561122c57600a840660300160f81b8282806001900393508151811061120a57fe5b60200101906001600160f81b031916908160001a905350600a840493506111e7565b50949350505050565b60006107db83836115ee565b5490565b60006107db8383611606565b60006107db83836116cc565b60006110fe84846001600160a01b038516611716565b815460009082106112b55760405162461bcd60e51b8152600401808060200182810382526022815260200180611b126022913960400191505060405180910390fd5b8260000182815481106112c457fe5b9060005260206000200154905092915050565b6112e183836117ad565b6112ee600084848461146e565b6107465760405162461bcd60e51b8152600401808060200182810382526032815260200180611b346032913960400191505060405180910390fd5b81546000908190831061136d5760405162461bcd60e51b8152600401808060200182810382526022815260200180611c416022913960400191505060405180910390fd5b600084600001848154811061137e57fe5b906000526020600020906002020190508060000154816001015492509250509250929050565b6000828152600184016020526040812054828161143f5760405162461bcd60e51b81526004018080602001828103825283818151815260200191508051906020019080838360005b838110156114045781810151838201526020016113ec565b50505050905090810190601f1680156114315780820380516001836020036101000a031916815260200191505b509250505060405180910390fd5b5084600001600182038154811061145257fe5b9060005260206000209060020201600101549150509392505050565b6000611482846001600160a01b03166118e7565b61148e57506001610ee2565b60606115b4630a85bd0160e11b6114a3610dc9565b88878760405160240180856001600160a01b03166001600160a01b03168152602001846001600160a01b03166001600160a01b0316815260200183815260200180602001828103825283818151815260200191508051906020019080838360005b8381101561151c578181015183820152602001611504565b50505050905090810190601f1680156115495780820380516001836020036101000a031916815260200191505b5095505050505050604051602081830303815290604052906001600160e01b0319166020820180516001600160e01b038381831617835250505050604051806060016040528060328152602001611b34603291396001600160a01b038816919063ffffffff6118ed16565b905060008180602001905160208110156115cd57600080fd5b50516001600160e01b031916630a85bd0160e11b1492505050949350505050565b60009081526001919091016020526040902054151590565b600081815260018301602052604081205480156116c2578354600019808301919081019060009087908390811061163957fe5b906000526020600020015490508087600001848154811061165657fe5b60009182526020808320909101929092558281526001898101909252604090209084019055865487908061168657fe5b600190038181906000526020600020016000905590558660010160008781526020019081526020016000206000905560019450505050506107de565b60009150506107de565b60006116d883836115ee565b61170e575081546001818101845560008481526020808220909301849055845484825282860190935260409020919091556107de565b5060006107de565b60008281526001840160205260408120548061177b575050604080518082018252838152602080820184815286546001818101895560008981528481209551600290930290950191825591519082015586548684528188019092529290912055611101565b8285600001600183038154811061178e57fe5b9060005260206000209060020201600101819055506000915050611101565b6001600160a01b038216611808576040805162461bcd60e51b815260206004820181905260248201527f4552433732313a206d696e7420746f20746865207a65726f2061646472657373604482015290519081900360640190fd5b61181181610db6565b15611863576040805162461bcd60e51b815260206004820152601c60248201527f4552433732313a20746f6b656e20616c7265616479206d696e74656400000000604482015290519081900360640190fd5b61186f60008383610746565b6001600160a01b0382166000908152600160205260409020611897908263ffffffff61125116565b506118aa6002828463ffffffff61125d16565b5060405181906001600160a01b038416906000907fddf252ad1be2c89b69c2b068fc378daa952ba7f163c4a11628f55a4df523b3ef908290a45050565b3b151590565b60606110fe848460008585611901856118e7565b611952576040805162461bcd60e51b815260206004820152601d60248201527f416464726573733a2063616c6c20746f206e6f6e2d636f6e7472616374000000604482015290519081900360640190fd5b60006060866001600160a01b031685876040518082805190602001908083835b602083106119915780518252601f199092019160209182019101611972565b6001836020036101000a03801982511681845116808217855250505050505090500191505060006040518083038185875af1925050503d80600081146119f3576040519150601f19603f3d011682016040523d82523d6000602084013e6119f8565b606091505b5091509150611a08828286611a13565b979650505050505050565b60608315611a22575081611101565b825115611a325782518084602001fd5b60405162461bcd60e51b81526020600482018181528451602484015284518593919283926044019190850190808383600083156114045781810151838201526020016113ec565b828054600181600116156101000203166002900490600052602060002090601f016020900481019282601f10611aba57805160ff1916838001178555611ae7565b82800160010185558215611ae7579182015b82811115611ae7578251825591602001919060010190611acc565b50611af3929150611af7565b5090565b61060b91905b80821115611af35760008155600101611afd56fe456e756d657261626c655365743a20696e646578206f7574206f6620626f756e64734552433732313a207472616e7366657220746f206e6f6e20455243373231526563656976657220696d706c656d656e7465724552433732313a207472616e7366657220746f20746865207a65726f20616464726573734552433732313a206f70657261746f7220717565727920666f72206e6f6e6578697374656e7420746f6b656e4552433732313a20617070726f76652063616c6c6572206973206e6f74206f776e6572206e6f7220617070726f76656420666f7220616c6c4552433732313a2062616c616e636520717565727920666f7220746865207a65726f20616464726573734552433732313a206f776e657220717565727920666f72206e6f6e6578697374656e7420746f6b656e456e756d657261626c654d61703a20696e646578206f7574206f6620626f756e64734552433732313a20617070726f76656420717565727920666f72206e6f6e6578697374656e7420746f6b656e4552433732314d657461646174613a2055524920736574206f66206e6f6e6578697374656e7420746f6b656e4552433732313a207472616e73666572206f6620746f6b656e2074686174206973206e6f74206f776e4552433732314d657461646174613a2055524920717565727920666f72206e6f6e6578697374656e7420746f6b656e4552433732313a20617070726f76616c20746f2063757272656e74206f776e65724552433732313a207472616e736665722063616c6c6572206973206e6f74206f776e6572206e6f7220617070726f766564a264697066735822122039315a235ddcecf7c5cbd2b9f6db83885b5fb1c5c8a156ac3d609d74d087d24764736f6c63430006060033",
  "immutableReferences": {},
  "source": "pragma solidity 0.6.6;\r\n\r\nimport \"@openzeppelin/contracts/token/ERC721/ERC721.sol\";\r\n\r\ncontract SimpleCollectible is ERC721 {\r\n  uint256 public tokenCounter;\r\n\r\n  constructor() public ERC721(\"Dogie\", \"DOG\") {\r\n    tokenCounter = 0;\r\n  }\r\n\r\n  function createCollectible(string memory tokenURI) public returns (uint256) {\r\n    uint256 newItemId = tokenCounter;\r\n    _safeMint(msg.sender, newItemId);\r\n    _setTokenURI(newItemId, tokenURI);\r\n    tokenCounter++;\r\n    return newItemId;\r\n  }\r\n}\r\n",
  "sourcePath": "D:/my-nft-mix/contracts/SimpleCollectible.sol",
  "compiler": {
    "name": "solc",
    "version": "0.6.6+commit.6c089d02.Emscripten.clang"
  },
  "schemaVersion": "3.4.1",
  "updatedAt": "2021-05-28T09:24:41.963Z",
  "networkType": "ethereum",
  "devdoc": {
    "methods": {
      "approve(address,uint256)": {
        "details": "See {IERC721-approve}."
      },
      "balanceOf(address)": {
        "details": "See {IERC721-balanceOf}."
      },
      "baseURI()": {
        "details": "Returns the base URI set via {_setBaseURI}. This will be automatically added as a prefix in {tokenURI} to each token's URI, or to the token ID if no specific URI is set for that token ID."
      },
      "getApproved(uint256)": {
        "details": "See {IERC721-getApproved}."
      },
      "isApprovedForAll(address,address)": {
        "details": "See {IERC721-isApprovedForAll}."
      },
      "name()": {
        "details": "See {IERC721Metadata-name}."
      },
      "ownerOf(uint256)": {
        "details": "See {IERC721-ownerOf}."
      },
      "safeTransferFrom(address,address,uint256)": {
        "details": "See {IERC721-safeTransferFrom}."
      },
      "safeTransferFrom(address,address,uint256,bytes)": {
        "details": "See {IERC721-safeTransferFrom}."
      },
      "setApprovalForAll(address,bool)": {
        "details": "See {IERC721-setApprovalForAll}."
      },
      "supportsInterface(bytes4)": {
        "details": "See {IERC165-supportsInterface}.     * Time complexity O(1), guaranteed to always use less than 30 000 gas."
      },
      "symbol()": {
        "details": "See {IERC721Metadata-symbol}."
      },
      "tokenByIndex(uint256)": {
        "details": "See {IERC721Enumerable-tokenByIndex}."
      },
      "tokenOfOwnerByIndex(address,uint256)": {
        "details": "See {IERC721Enumerable-tokenOfOwnerByIndex}."
      },
      "tokenURI(uint256)": {
        "details": "See {IERC721Metadata-tokenURI}."
      },
      "totalSupply()": {
        "details": "See {IERC721Enumerable-totalSupply}."
      },
      "transferFrom(address,address,uint256)": {
        "details": "See {IERC721-transferFrom}."
      }
    }
  },
  "userdoc": {
    "methods": {}
  }
}